{
  "contractName": "Ecommerce",
  "abi": [
    {
      "inputs": [],
      "stateMutability": "nonpayable",
      "type": "constructor"
    },
    {
      "anonymous": false,
      "inputs": [
        {
          "indexed": false,
          "internalType": "uint256",
          "name": "productID",
          "type": "uint256"
        },
        {
          "indexed": false,
          "internalType": "address",
          "name": "buyer",
          "type": "address"
        }
      ],
      "name": "baught",
      "type": "event"
    },
    {
      "anonymous": false,
      "inputs": [
        {
          "indexed": false,
          "internalType": "uint256",
          "name": "productID",
          "type": "uint256"
        }
      ],
      "name": "delivered",
      "type": "event"
    },
    {
      "anonymous": false,
      "inputs": [
        {
          "indexed": false,
          "internalType": "string",
          "name": "title",
          "type": "string"
        },
        {
          "indexed": false,
          "internalType": "uint256",
          "name": "productID",
          "type": "uint256"
        },
        {
          "indexed": false,
          "internalType": "address",
          "name": "seller",
          "type": "address"
        }
      ],
      "name": "registered",
      "type": "event"
    },
    {
      "stateMutability": "payable",
      "type": "fallback"
    },
    {
      "inputs": [],
      "name": "manager",
      "outputs": [
        {
          "internalType": "address payable",
          "name": "",
          "type": "address"
        }
      ],
      "stateMutability": "view",
      "type": "function"
    },
    {
      "inputs": [
        {
          "internalType": "uint256",
          "name": "",
          "type": "uint256"
        }
      ],
      "name": "products",
      "outputs": [
        {
          "internalType": "string",
          "name": "title",
          "type": "string"
        },
        {
          "internalType": "string",
          "name": "disc",
          "type": "string"
        },
        {
          "internalType": "address payable",
          "name": "seller",
          "type": "address"
        },
        {
          "internalType": "uint256",
          "name": "productID",
          "type": "uint256"
        },
        {
          "internalType": "uint256",
          "name": "price",
          "type": "uint256"
        },
        {
          "internalType": "address",
          "name": "buyer",
          "type": "address"
        },
        {
          "internalType": "bool",
          "name": "delivered",
          "type": "bool"
        }
      ],
      "stateMutability": "view",
      "type": "function"
    },
    {
      "inputs": [
        {
          "internalType": "string",
          "name": "_title",
          "type": "string"
        },
        {
          "internalType": "string",
          "name": "_disc",
          "type": "string"
        },
        {
          "internalType": "uint256",
          "name": "_price",
          "type": "uint256"
        }
      ],
      "name": "registerProduct",
      "outputs": [],
      "stateMutability": "nonpayable",
      "type": "function"
    },
    {
      "inputs": [
        {
          "internalType": "uint256",
          "name": "_productID",
          "type": "uint256"
        }
      ],
      "name": "buy",
      "outputs": [],
      "stateMutability": "payable",
      "type": "function"
    },
    {
      "inputs": [
        {
          "internalType": "uint256",
          "name": "_productID",
          "type": "uint256"
        }
      ],
      "name": "delivery",
      "outputs": [],
      "stateMutability": "nonpayable",
      "type": "function"
    },
    {
      "inputs": [],
      "name": "destroy",
      "outputs": [],
      "stateMutability": "nonpayable",
      "type": "function"
    }
  ],
  "bytecode": "0x608060405260015f555f600260146101000a81548160ff02191690831515021790555034801561002d575f80fd5b503360025f6101000a81548173ffffffffffffffffffffffffffffffffffffffff021916908373ffffffffffffffffffffffffffffffffffffffff16021790555061171a8061007b5f395ff3fe608060405260043610610058575f3560e01c80631144fd721461009e5780633153a15b146100c6578063481c6a75146100ee5780637acc0b201461011857806383197ef01461015a578063d96a094a1461017057610059565b5b3373ffffffffffffffffffffffffffffffffffffffff166108fc3490811502906040515f60405180830381858888f1935050505015801561009c573d5f803e3d5ffd5b005b3480156100a9575f80fd5b506100c460048036038101906100bf9190610c49565b61018c565b005b3480156100d1575f80fd5b506100ec60048036038101906100e79190610db0565b6103d7565b005b3480156100f9575f80fd5b50610102610652565b60405161010f9190610e77565b60405180910390f35b348015610123575f80fd5b5061013e60048036038101906101399190610c49565b610677565b6040516101519796959493929190610f53565b60405180910390f35b348015610165575f80fd5b5061016e61081b565b005b61018a60048036038101906101859190610c49565b61097c565b005b600260149054906101000a900460ff16156101dc576040517f08c379a00000000000000000000000000000000000000000000000000000000081526004016101d390611018565b60405180910390fd5b3373ffffffffffffffffffffffffffffffffffffffff16600180836102019190611063565b8154811061021257610211611096565b5b905f5260205f2090600602016005015f9054906101000a900473ffffffffffffffffffffffffffffffffffffffff1673ffffffffffffffffffffffffffffffffffffffff1614610297576040517f08c379a000000000000000000000000000000000000000000000000000000000815260040161028e9061110d565b60405180910390fd5b6001806001836102a79190611063565b815481106102b8576102b7611096565b5b905f5260205f20906006020160050160146101000a81548160ff021916908315150217905550600180826102ec9190611063565b815481106102fd576102fc611096565b5b905f5260205f2090600602016002015f9054906101000a900473ffffffffffffffffffffffffffffffffffffffff1673ffffffffffffffffffffffffffffffffffffffff166108fc600180846103539190611063565b8154811061036457610363611096565b5b905f5260205f2090600602016004015490811502906040515f60405180830381858888f1935050505015801561039c573d5f803e3d5ffd5b507f4b5e4108167a669a2da8b1edeb1bf605987224cec90eeca47f7f235104539f21816040516103cc919061112b565b60405180910390a150565b600260149054906101000a900460ff1615610427576040517f08c379a000000000000000000000000000000000000000000000000000000000815260040161041e90611018565b60405180910390fd5b5f8111610469576040517f08c379a0000000000000000000000000000000000000000000000000000000008152600401610460906111b4565b60405180910390fd5b610471610b9f565b83815f0181905250828160200181905250670de0b6b3a76400008261049691906111d2565b81608001818152505033816040019073ffffffffffffffffffffffffffffffffffffffff16908173ffffffffffffffffffffffffffffffffffffffff16815250505f54816060018181525050600181908060018154018082558091505060019003905f5260205f2090600602015f909190919091505f820151815f01908161051e919061140d565b506020820151816001019081610534919061140d565b506040820151816002015f6101000a81548173ffffffffffffffffffffffffffffffffffffffff021916908373ffffffffffffffffffffffffffffffffffffffff160217905550606082015181600301556080820151816004015560a0820151816005015f6101000a81548173ffffffffffffffffffffffffffffffffffffffff021916908373ffffffffffffffffffffffffffffffffffffffff16021790555060c08201518160050160146101000a81548160ff02191690831515021790555050505f80815480929190610608906114dc565b91905055507f2f2d57060110e728629fcdcfd43a3b0f571b51ca1899668910d777e935601e3e8482606001513360405161064493929190611523565b60405180910390a150505050565b60025f9054906101000a900473ffffffffffffffffffffffffffffffffffffffff1681565b60018181548110610686575f80fd5b905f5260205f2090600602015f91509050805f0180546106a590611240565b80601f01602080910402602001604051908101604052809291908181526020018280546106d190611240565b801561071c5780601f106106f35761010080835404028352916020019161071c565b820191905f5260205f20905b8154815290600101906020018083116106ff57829003601f168201915b50505050509080600101805461073190611240565b80601f016020809104026020016040519081016040528092919081815260200182805461075d90611240565b80156107a85780601f1061077f576101008083540402835291602001916107a8565b820191905f5260205f20905b81548152906001019060200180831161078b57829003601f168201915b505050505090806002015f9054906101000a900473ffffffffffffffffffffffffffffffffffffffff1690806003015490806004015490806005015f9054906101000a900473ffffffffffffffffffffffffffffffffffffffff16908060050160149054906101000a900460ff16905087565b600260149054906101000a900460ff161561086b576040517f08c379a000000000000000000000000000000000000000000000000000000000815260040161086290611018565b60405180910390fd5b3373ffffffffffffffffffffffffffffffffffffffff1660025f9054906101000a900473ffffffffffffffffffffffffffffffffffffffff1673ffffffffffffffffffffffffffffffffffffffff16146108fa576040517f08c379a00000000000000000000000000000000000000000000000000000000081526004016108f1906115cf565b60405180910390fd5b60025f9054906101000a900473ffffffffffffffffffffffffffffffffffffffff1673ffffffffffffffffffffffffffffffffffffffff166108fc4790811502906040515f60405180830381858888f1935050505015801561095e573d5f803e3d5ffd5b506001600260146101000a81548160ff021916908315150217905550565b600260149054906101000a900460ff16156109cc576040517f08c379a00000000000000000000000000000000000000000000000000000000081526004016109c390611018565b60405180910390fd5b34600180836109db9190611063565b815481106109ec576109eb611096565b5b905f5260205f2090600602016004015414610a3c576040517f08c379a0000000000000000000000000000000000000000000000000000000008152600401610a3390611637565b60405180910390fd5b3373ffffffffffffffffffffffffffffffffffffffff1660018083610a619190611063565b81548110610a7257610a71611096565b5b905f5260205f2090600602016002015f9054906101000a900473ffffffffffffffffffffffffffffffffffffffff1673ffffffffffffffffffffffffffffffffffffffff1603610af7576040517f08c379a0000000000000000000000000000000000000000000000000000000008152600401610aee9061169f565b60405180910390fd5b3360018083610b069190611063565b81548110610b1757610b16611096565b5b905f5260205f2090600602016005015f6101000a81548173ffffffffffffffffffffffffffffffffffffffff021916908373ffffffffffffffffffffffffffffffffffffffff1602179055507fb575b1c878dc377bd63ce2baed968bf73f501ef259eaa44a369ecddf6a3a62418133604051610b949291906116bd565b60405180910390a150565b6040518060e0016040528060608152602001606081526020015f73ffffffffffffffffffffffffffffffffffffffff1681526020015f81526020015f81526020015f73ffffffffffffffffffffffffffffffffffffffff1681526020015f151581525090565b5f604051905090565b5f80fd5b5f80fd5b5f819050919050565b610c2881610c16565b8114610c32575f80fd5b50565b5f81359050610c4381610c1f565b92915050565b5f60208284031215610c5e57610c5d610c0e565b5b5f610c6b84828501610c35565b91505092915050565b5f80fd5b5f80fd5b5f601f19601f8301169050919050565b7f4e487b71000000000000000000000000000000000000000000000000000000005f52604160045260245ffd5b610cc282610c7c565b810181811067ffffffffffffffff82111715610ce157610ce0610c8c565b5b80604052505050565b5f610cf3610c05565b9050610cff8282610cb9565b919050565b5f67ffffffffffffffff821115610d1e57610d1d610c8c565b5b610d2782610c7c565b9050602081019050919050565b828183375f83830152505050565b5f610d54610d4f84610d04565b610cea565b905082815260208101848484011115610d7057610d6f610c78565b5b610d7b848285610d34565b509392505050565b5f82601f830112610d9757610d96610c74565b5b8135610da7848260208601610d42565b91505092915050565b5f805f60608486031215610dc757610dc6610c0e565b5b5f84013567ffffffffffffffff811115610de457610de3610c12565b5b610df086828701610d83565b935050602084013567ffffffffffffffff811115610e1157610e10610c12565b5b610e1d86828701610d83565b9250506040610e2e86828701610c35565b9150509250925092565b5f73ffffffffffffffffffffffffffffffffffffffff82169050919050565b5f610e6182610e38565b9050919050565b610e7181610e57565b82525050565b5f602082019050610e8a5f830184610e68565b92915050565b5f81519050919050565b5f82825260208201905092915050565b5f5b83811015610ec7578082015181840152602081019050610eac565b5f8484015250505050565b5f610edc82610e90565b610ee68185610e9a565b9350610ef6818560208601610eaa565b610eff81610c7c565b840191505092915050565b610f1381610c16565b82525050565b5f610f2382610e38565b9050919050565b610f3381610f19565b82525050565b5f8115159050919050565b610f4d81610f39565b82525050565b5f60e0820190508181035f830152610f6b818a610ed2565b90508181036020830152610f7f8189610ed2565b9050610f8e6040830188610e68565b610f9b6060830187610f0a565b610fa86080830186610f0a565b610fb560a0830185610f2a565b610fc260c0830184610f44565b98975050505050505050565b7f436f6e747261637420646f6573206e6f742065786973740000000000000000005f82015250565b5f611002601783610e9a565b915061100d82610fce565b602082019050919050565b5f6020820190508181035f83015261102f81610ff6565b9050919050565b7f4e487b71000000000000000000000000000000000000000000000000000000005f52601160045260245ffd5b5f61106d82610c16565b915061107883610c16565b92508282039050818111156110905761108f611036565b5b92915050565b7f4e487b71000000000000000000000000000000000000000000000000000000005f52603260045260245ffd5b7f4f6e6c792062757965722063616e20636f6e6669726d000000000000000000005f82015250565b5f6110f7601683610e9a565b9150611102826110c3565b602082019050919050565b5f6020820190508181035f830152611124816110eb565b9050919050565b5f60208201905061113e5f830184610f0a565b92915050565b7f50726963652073686f756c642062652067726561746572207468616e205a65725f8201527f6f00000000000000000000000000000000000000000000000000000000000000602082015250565b5f61119e602183610e9a565b91506111a982611144565b604082019050919050565b5f6020820190508181035f8301526111cb81611192565b9050919050565b5f6111dc82610c16565b91506111e783610c16565b92508282026111f581610c16565b9150828204841483151761120c5761120b611036565b5b5092915050565b7f4e487b71000000000000000000000000000000000000000000000000000000005f52602260045260245ffd5b5f600282049050600182168061125757607f821691505b60208210810361126a57611269611213565b5b50919050565b5f819050815f5260205f209050919050565b5f6020601f8301049050919050565b5f82821b905092915050565b5f600883026112cc7fffffffffffffffffffffffffffffffffffffffffffffffffffffffffffffffff82611291565b6112d68683611291565b95508019841693508086168417925050509392505050565b5f819050919050565b5f61131161130c61130784610c16565b6112ee565b610c16565b9050919050565b5f819050919050565b61132a836112f7565b61133e61133682611318565b84845461129d565b825550505050565b5f90565b611352611346565b61135d818484611321565b505050565b5b81811015611380576113755f8261134a565b600181019050611363565b5050565b601f8211156113c55761139681611270565b61139f84611282565b810160208510156113ae578190505b6113c26113ba85611282565b830182611362565b50505b505050565b5f82821c905092915050565b5f6113e55f19846008026113ca565b1980831691505092915050565b5f6113fd83836113d6565b9150826002028217905092915050565b61141682610e90565b67ffffffffffffffff81111561142f5761142e610c8c565b5b6114398254611240565b611444828285611384565b5f60209050601f831160018114611475575f8415611463578287015190505b61146d85826113f2565b8655506114d4565b601f19841661148386611270565b5f5b828110156114aa57848901518255600182019150602085019450602081019050611485565b868310156114c757848901516114c3601f8916826113d6565b8355505b6001600288020188555050505b505050505050565b5f6114e682610c16565b91507fffffffffffffffffffffffffffffffffffffffffffffffffffffffffffffffff820361151857611517611036565b5b600182019050919050565b5f6060820190508181035f83015261153b8186610ed2565b905061154a6020830185610f0a565b6115576040830184610f2a565b949350505050565b7f4f6e6c79206d616e616765722063616e2063616c6c20746869732066756e63745f8201527f696f6e0000000000000000000000000000000000000000000000000000000000602082015250565b5f6115b9602383610e9a565b91506115c48261155f565b604082019050919050565b5f6020820190508181035f8301526115e6816115ad565b9050919050565b7f506c6561736520706179207468652065786163742070726963650000000000005f82015250565b5f611621601a83610e9a565b915061162c826115ed565b602082019050919050565b5f6020820190508181035f83015261164e81611615565b9050919050565b7f53656c6c65722063616e206e6f7420627579207468652070726f6475637400005f82015250565b5f611689601e83610e9a565b915061169482611655565b602082019050919050565b5f6020820190508181035f8301526116b68161167d565b9050919050565b5f6040820190506116d05f830185610f0a565b6116dd6020830184610f2a565b939250505056fea2646970667358221220b677f1a6c2421401e4796c06cf1853032885977016b165fdc146a8862440909a64736f6c63430008140033",
  "immutableReferences": {},
  "source": "//SPDX-License-Identifier: UNLICENSED\r\n\r\npragma solidity >=0.5.0 < 0.9.0;\r\n\r\ncontract Ecommerce{\r\n\r\n    struct Product{\r\n        string title;\r\n        string disc;\r\n        address payable seller;\r\n        uint productID;\r\n        uint price;\r\n        address buyer;\r\n        bool delivered;\r\n    }\r\n\r\n    uint counter = 1;\r\n    Product[] public products;\r\n    address payable public manager;\r\n\r\n    bool destroyed=false;\r\n\r\n    modifier isNotDestroyed{\r\n        require(!destroyed, \"Contract does not exist\");\r\n        _;\r\n    }\r\n\r\n    constructor(){\r\n        manager=payable(msg.sender);\r\n    }\r\n\r\n    event registered(string title,uint productID,address seller);\r\n    event baught(uint productID, address buyer);\r\n    event delivered(uint productID);\r\n\r\n    function registerProduct(string memory _title, string memory _disc, uint _price) public isNotDestroyed{\r\n        require(_price>0, \"Price should be greater than Zero\");\r\n        Product memory tempProduct;\r\n        tempProduct.title = _title;\r\n        tempProduct.disc = _disc;\r\n        tempProduct.price = _price * 10**18;\r\n        tempProduct.seller = payable(msg.sender);\r\n        tempProduct.productID = counter;\r\n        products.push(tempProduct);\r\n        counter++;\r\n        emit registered(_title,tempProduct.productID,msg.sender);\r\n    }\r\n    function buy(uint _productID) payable public isNotDestroyed{\r\n        require(products[_productID-1].price==msg.value,\"Please pay the exact price\");\r\n        require(products[_productID-1].seller!=msg.sender,\"Seller can not buy the product\");\r\n        products[_productID-1].buyer = msg.sender;\r\n        emit baught(_productID,msg.sender);\r\n    }\r\n    function delivery(uint _productID) public isNotDestroyed{\r\n        require(products[_productID-1].buyer==msg.sender,\"Only buyer can confirm\");\r\n        products[_productID-1].delivered=true;\r\n        products[_productID-1].seller.transfer(products[_productID-1].price);\r\n        emit delivered(_productID);\r\n    }\r\n\r\n    // function destroy() public{\r\n    //     require(msg.sender==manager, \"Only manager can call this function\");\r\n    //     selfdestruct(manager);\r\n    // }\r\n\r\n    function destroy() public isNotDestroyed{\r\n        require(manager==msg.sender, \"Only manager can call this function\");\r\n        manager.transfer(address(this).balance);\r\n        destroyed=true;\r\n    }\r\n\r\n    fallback() payable external{\r\n        payable(msg.sender).transfer(msg.value);\r\n    }\r\n}",
  "sourcePath": "C:\\Users\\RITIK GUPTA\\chain\\chain\\contracts\\ecommerce.sol",
  "compiler": {
    "name": "solc",
    "version": "0.8.20+commit.a1b79de6.Emscripten.clang"
  },
  "schemaVersion": "3.4.14",
  "updatedAt": "2023-07-02T22:05:29.338Z",
  "devdoc": {
    "kind": "dev",
    "methods": {},
    "version": 1
  },
  "userdoc": {
    "kind": "user",
    "methods": {},
    "version": 1
  }
}